:100800001209381208AF7F817E001209147F771217
:1008100009427F771209427F771209427F2E12091F
:10082000427F541209427F681209427F65120942D1
:100830007F451209427F6E1209427F671209427F8B
:10084000691209427F6E1209427F651209427F6573
:100850001209427F721209427F691209427F6E12A9
:1008600009427F671209427FC47E001209147F503B
:100870001209427F721209427F6F1209427F6A1287
:1008800009427F651209427F631209427F7412098F
:10089000427F731209427F2E1209427F631209427E
:0F08A0007F6F1209427F6D12094212091E80FEFE
:0A093800E4F580F590F5A0F5B0227B
:0808ED008FA0D2917F967E00DE
:1008F500E4FDFCC3ED9FEE6480F8EC64809850073E
:070905000DBD00010C80ECA8
:01090C0022C8
:0A094200D2901208EDC2910208F5F0
:07090D001208F57F307E00A7
:0A091400C2901208EDC2910208F52E
:1008AF007F987E3A12090D7F947E1112090D7F2CCD
:1008BF007E011208F57F301E1209147F8A7E021204
:1008CF0008F57F387E001209147F0C7E0012091480
:0E08DF007F017E001209147F067E00020914BC
:0E091E007F027E001209147FDC7E050208F5C0
:0300000002092CC6
:0C092C00787FE4F6D8FD75810702080012
:00000001FF
