:03000000020DB13D
:0C0DB100787FE4F6D8FD758166020DF82D
:100F210053697374656D2052657365746C656E6485
:100F31006900256420544C00353A25642035303A47
:100F410025640031303A2564203130303A2564007F
:100F510032303A25640050415241205341594D41AC
:0A0F6100204D414B494E4553490015
:0F107300012400012700012A00012D0001340093
:03000B00020EC121
:100EC100C0E0C0F0C083C082C0D075D000C000C0F7
:100ED10001C002C003C004C005C006C0077F947EE4
:100EE100001210597BFF7A0F7921120F717FD47E86
:100EF10000121059120F6BC2A975380075370075B1
:100F01003600753500D007D006D005D004D003D007
:100F110002D001D000D0D0D082D083D0F0D0E03246
:10106300758C3C758AB0D28C308DFDC28CC28D22BA
:081012008FA0D2977F967E00AB
:10101A00E4FDFCC3ED9FEE6480F8EC648098500711
:07102A000DBD00010C80EC7C
:01103100229C
:10103200E4FDFCC3ED9FEC9E5015E4FBFA0BBB00F4
:0F104200010AEB64644A70F50DBD00010C80E4F7
:01105100227C
:03000300020B5C91
:100B5C00C0E0C0F0C083C082C0D075D000C000C05F
:100B6C0001C002C003C004C005C006C007E526458D
:100B7C0025701D0544E54470020543E5382405F550
:100B8C0038E43537F537E43536F536E43535F535B3
:100B9C00E5294528701D0523E52370020522E5385B
:100BAC00240AF538E43537F537E43536F536E435CF
:100BBC0035F535E52C452B701D053EE53E700205DF
:100BCC003DE5382414F538E43537F537E43536F59A
:100BDC0036E43535F535E52F452E701D053AE53AE9
:100BEC0070020539E5382432F538E43537F537E449
:100BFC003536F536E43535F535E5314530701D05BE
:100C0C0046E54670020545E5382464F538E4353789
:100C1C00F537E43536F536E43535F535E53345321B
:100C2C00701D053CE53C7002053BE53824C8F538E1
:100C3C00E43537F537E43536F536E43535F53585B5
:100C4C00373F8538407556FF75570F755833853FBC
:100C5C005985405A7B007A00792412085C7F807E8B
:100C6C0000121059120F6B120E3DD007D006D00592
:100C7C00D004D003D002D001D000D0D0D082D08309
:050C8C00D0F0D0E032C1
:100E3D007FC07E001210597556FF75570F755839C2
:100E4D0085435985445A85395B853A5C7B007A0028
:100E5D00792712085C7B007A007927120F717F9435
:100E6D007E001210597556FF75570F75584485221F
:100E7D005985235A85455B85465C7B007A00792A26
:100E8D0012085C7B007A00792A120F717FD47E00E4
:100E9D001210597556FF75570F755851853D598567
:100EAD003E5A7B007A00792D12085C7B007A00791E
:040EBD002D020F7182
:060F6B007B007A007924EE
:060F71008B538A548955E0
:100F7700E4F556AB53AA54A95585568275830012DA
:100F87000D23FFFD3395E04D600712109105568044
:100F9700E2C3E55694147480948050097F201210A0
:050FA70091055680ECED
:010FAC002222
:100FAD007F987E3A1210527F947E111210527F2C30
:100FBD007E0112101A7F301E1210597F8A7E021286
:100FCD00101A7F387E001210597F0C7E00121059B6
:0E0FDD007F017E001210597F067E000210591F
:0710520012101A7F307E002E
:0A105900C296121012C29702101A7C
:0A109100D296121012C29702101A34
:0E1083007F027E001210597FDC7E0502101ADB
:100C9100E4F5807590FFF5A075B014758901D2A8AF
:100CA100D288D2AF120FAD7F807E001210597BFF28
:100CB1007A0F7957120F71121083E4F547F548E462
:100CC100F549F54AA290E433752500F526A291E491
:100CD10033752800F529A292E433752B00F52CA277
:100CE10093E433752E00F52FA294E433753000F5AB
:100CF10031A295E433753200F533121063054AE5EC
:100D01004A70020549C39406E549940040B6054876
:100D1100E54870020547C39464E547940040A0D2BA
:020D2100A92205
:100DBD00020C91E493A3F8E493A34003F68001F2AF
:100DCD0008DFF48029E493A3F85407240CC8C33337
:100DDD00C4540F4420C8834004F456800146F6DF06
:100DED00E4800B0102040810204080901073E47E13
:100DFD00019360BCA3FF543F30E509541FFEE493FB
:100E0D00A360010ECF54C025E060A840B8E493A3C1
:100E1D00FAE493A3F8E493A3C8C582C8CAC583CAEC
:100E2D00F0A3C8C582C8CAC583CADFE9DEE780BEA4
:01108200006D
:100D2300BB010CE58229F582E5833AF583E0225085
:100D330006E92582F8E622BBFE06E92582F8E222CF
:0D0D4300E58229F582E5833AF583E49322E9
:10080000E5622456F8E605622278533007027856EE
:10081000E475F001120D7B020D502000EB7F2ED20B
:10082000008018EF540F2490D43440D4FF30040BD0
:10083000EF24BFB41A0050032461FFE56360021582
:10084000630566E5667002056530070D7853E4754B
:10085000F001120D7BEF020D69020FEB7403D2075A
:100860008003E4C207F5628B538A548955E4F5632B
:10087000F565F566E56360077F2012083B80F57536
:1008800064FFC201C200C202C203C205C206C2089E
:10089000120809FF700D3007057F0012084CAF6683
:1008A000AE6522B4255FC2D5C204120809FF24D068
:1008B000B40A00501A75F00A786330D50508B6FFFF
:1008C0000106C6A426F620D5047002D20380D924DE
:1008D000CFB41A00EF5004C2E5D204020A4CD20190
:1008E00080C6D20080C0D20280BCD2D580BAD205E8
:1008F00080B47F2012083B2002077401B5630040DA
:10090000F1120800FF12083B020874D208D20680D8
:1009100095120800FB120800FA120800F94A4B7001
:1009200006791D7A0B7BFF20022EE563602A7E008C
:100930008E82758300120D2360060EEE656470F0E2
:10094000C2D5EBC0E0EAC0E0E9C0E0EE120A93D005
:10095000E0F9D0E0FAD0E0FB120D50FF60AAEBC046
:10096000E0EAC0E0E9C0E012083BD0E02401F9D0A1
:10097000E03400FAD0E0FBE5640460DCD564D980A3
:10098000877BFF7A0A798FD202809C791080027966
:1009900008C206C2088008D2D5790A8004790AC242
:1009A000D5E564047002F564E4FAFDFEFF12080068
:1009B000FC7B08200113120800FD7B1030000A1296
:1009C0000800FE120800FF7B20EC3382D592D55040
:1009D00013C3E43000069FFFE49EFEE42001039D64
:1009E000FDE49CFCE4CBF8C201EC700CCFCECDCC86
:1009F000E824F8F870F38017C3EF33FFEE33FEED11
:100A000033FDEC33FCEB33FB994002FB0FD8E9EBF1
:100A1000300105F8D0E0C448B201C0E00AEC4D4E08
:100A20004F78207B0070C2EAB5640040BCC0E01281
:100A30000A95D0F0D0E0200104C4C0E0C4B201C0E7
:100A4000F0120824D0F0D5F0EB020874120D8B09D7
:100A50001153098B5808E24C08DE42098F4F099761
:0F0A60004409974908F743099D550981460981C3
:100A6F00450981470B3D5008E62D08EA2E090D2B4D
:100A7F0008EE23090B200B262A08A64800000905BB
:100A8F003F3F3F00790AA2D5200314300509B91062
:100A9F00020404B9080104A2D52006025001042063
:100AAF0002689202B563005034C0E07F2030031912
:100ABF007F30A20272067205500F120AECC202C2F8
:100ACF0006C205C2087F30800F300503E9C0E0126F
:100ADF00083B300503D0E0F9D0E0B563CC30051703
:100AEF007F30B9100C12083B7F583004077F788095
:100AFF0003B9080312083B3002057F2D02083B7F24
:100B0F00202008F87F2B2006F322920280CF286E38
:100B1F00756C6C2900D2011208003001F8C20178FF
:100B2F006330D50108F60208A62D50434958120824
:100B3F00002403B405004001E4900B389312082CF5
:0D0B4F00743A12082CD20375630402098B5E
:100D5000BB010689828A83E0225002E722BBFE02A1
:090D6000E32289828A83E49322D4
:100D6900BB010689828A83F0225002F722BBFE0169
:020D7900F32263
:100D7B00FAE6FB0808E6F925F0F618E6CA3AF62279
:100D8B00D083D082F8E4937012740193700DA3A3F7
:100D9B0093F8740193F5828883E47374029368600B
:060DAB00EFA3A3A380DF0B
:100FEB00EFB40A07740D120FF6740A309811A89912
:100FFB00B8130CC2983098FDA899C298B811F63066
:07100B0099FDC299F599223D
:00000001FF
